:02000000892B4A
:0E000600213083120313FD00FD0B07280800B4
:100014000F3083120313FC004730FD00FD0B102842
:0A002400FC0B10280000000008008B
:06002E00000000000800C4
:1000340083160313AF1B21288312871323288312EB
:10004400871783162F1B2928831207132B28831243
:1000540007178316AF1A31288312871233288312A5
:10006400871683162F1A3928831207123B28831206
:10007400071659183F280715402807118715172018
:1000840087118316AF194928831287134B288312CB
:10009400871783162F1951288312071353288312A5
:1000A40007178316AF185928831287125B28831207
:1000B400871683162F186128831207126328831268
:1000C4000716591867280715682807118715172078
:0E00D4008711591C6F280A207028032008008D
:1000E2007B15FB1F7B280130F300F201F101F001C7
:0800F200FA0DF20CFF300800CA
:0800FA00FA1FF21300300800A8
:0E010200F201F101F001F801F30100300800F4
:100110007B14FB1F9328F201FA1FFF30F200F1005D
:0A012000F000FA0DF20CFF300800A9
:10012A0083120313591083162E08AF001A2059148C
:02013A000800BB
:10013C00A0017208031DB3287108F2007008F100C9
:10014C00F001A0157208031DB3287108F200F1012B
:10015C00A011201672080319C1282008F302031DF0
:10016C00031CC5280310F21BC928F00DF10DF20D6C
:10017C00F30BB928C5280130FC008120CC280230B3
:0E018C00FC007120CC280430FC007D2008000F
:10019A00FB14FB1FD728FF30F300F200F100F00038
:0801AA00FA0DF20CFF30080011
:0E01B2008312031361088A00600882000800AF
:1001C000710DF80DF90D7408F8027508031C750F10
:1001D000F902F00DF10D0F30FC00710DF80DF90D65
:1001E0007408701CF928F8027508031C750FF902D1
:1001F000FE28F80775080318750FF907F00DF10DC3
:10020000FC0BED2870180A297408F8077508031804
:08021000750FF907000008005A
:1002180083120313FB017308031949297208FA00B2
:10022800F2178E30F302F31F4C29F309F30A083052
:100238007302031C2F29F300F10D7208F100F2017B
:1002480008307302031C2F29F300F10DF101730824
:10025800031D031037297308031937290310F20CFB
:10026800F10CF30B32297B1B711C4129031C41291A
:10027800F10A0319F20AF21B5829FA1F5B29F2093D
:10028800F109F10A0319F20A5B29F201F1015B296C
:100298007B14FB1F5E29F201FA1F5E29FF30F20072
:1002A800F100FA0DF20C5E290130FC0060290030E3
:1002B800FC006029FF30FC00FC0803196429882031
:0A02C8007108F0007208F100080050
:1002D20083120313FA017308031D7A147708031DAE
:1002E200FA147A080319B529033A031980297A18EE
:1002F2007D29F61FB329B129F21FB129B32972084A
:100302008039FA00F21376088039F6137A06031957
:100312008E297A080319B129B329770873020319C0
:100322009529031CA929AD297608720203199C2973
:10033200031CA929AD29750871020319A329031CFD
:10034200A929AD29740870020319B5290318AD292A
:10035200FA080319B329B129FA080319B129B329F3
:100362000314080003100800031403150800080012
:1003720083120313FB017308031D77080319102A64
:1003820072087606FA007708F3077E30031CCD293F
:10039200F3020318132AD029F302031C162A720847
:1003A200F8007108FC007008FD00F817F61703103A
:1003B200F201F101F0011830A0007D1CEA29740855
:1003C200F00775080318750FF10776080318760F02
:1003D200F207F20CF10CF00CF80CFC0CFD0C031003
:1003E200A00BDE29F21BFA29F80DF00DF10DF20D2A
:1003F200F3037B1B701C0C2AF81F0C2AF00A03194A
:10040200F10A0319F20A031D0C2AF20CF10CF00C8A
:10041200F30A0319132AFA1FF2130030182A0130C3
:100422008120182A0230CD20182A043071200000C1
:020432000800C0
:1004340083120313FB01FA01F9018030F800F10C77
:10044400F00C031C2E2A7408F90775080318750F9D
:10045400FA070318FB0A0310F01F362A7408FA0778
:1004640075080318750FFB07FB0CFA0CF90CF80C54
:10047400031C212A7B08F3007A08F2007908F100B2
:060484007808F0000800FA
:10048A00831203137408003A031D542A7508003AAC
:10049A00031D542AFF30F0007F30F100AD2A831289
:1004AA000313FD01F901F8017108700403190034FE
:1004BA0071087506FA00FA1BFD09FB01F51F6A2A85
:1004CA00F409F509F40A0319F50AF11F712AF0096A
:1004DA00F109F00A0319F10A71087504FA00FA1B06
:1004EA00862AE0207B18992AFD1F0034F009F109B9
:1004FA00F00A0319F10AF809F909F80A0319F90ABD
:10050A000034F51F952AF11B912A7108F900700829
:10051A00F800F101F001792AF101F001F00A003442
:10052A00F109F009FB0A762AF80A0319F90A74088C
:10053A007802031D792A75087902031D792AF901BF
:10054A00F801F00A0319F10AF11F792A0000FF34B1
:02055A00080097
:10055C0083120313F101F20183162B087202031D9F
:10056C00B92A2A0871020318CD2AF301F4010030CC
:10057C007402031DC32A9B3073020318C92AF30AA1
:10058C000319F40ABD2AF10A0319F20AB22A080067
:10059C00831203137008F8007108F000F101F201E6
:1005AC00F301FB01FC019630F300FA01F01FE42A81
:1005BC00F809F009F80A0319F00AFA177008F100A3
:0C05CC007808F000F801F2019E20080001
:1005D800D9208A110A128000840AE00A0319E10A64
:0805E800F003031DEC2A0800DA
:1005F0000A2B803083160313AA001D2BC030AA00DB
:100600001D2B9430AA001D2BD430AA001D2B803046
:10061000AA001D2B831603132A08013A0319F92A8D
:100620002A08023A0319FE2A2A08033A0319012B61
:100630002A08043A0319042B072B2B03F0002A087D
:10064000F0077008AA007008AF001A20591083162E
:10065000AD012D082C07840000080319382B2D0844
:100660002C0784000008AE0095208316AD0A292BC4
:060670008312591408007A
:1006760083160313871107110712871207138713AF
:1006860083128711071187130713871207120A208F
:100696000A200A20871607168715172087110A20B1
:1006A6008715172087110A208715172087110A201A
:1006B60007128715172087110A208715172087111B
:1006C600871287178715172087110A2087130716A1
:1006D60087151720871107128715172087110A20FB
:1006E60087151720871107168715172087110A20E7
:1006F60007128715172087118717071787160716FA
:0C0706008715172087110A2059140800DD
:10071200A6263B2301308316AF001A200C30831625
:10072200AF001A20831605148601C0309F00031300
:10073200813083129F0032308316AA000030AB0052
:10074200AE228530831203139F001F1DA92BA62BF7
:100752001E08DF00DE0183161E088312DE0400304D
:10076200DF0432308316AA000030AB00AE228130A3
:10077200831203139F005E08F0005F08F100CE228F
:100782008F30F400C230F5007530F6007D30F7008E
:10079200B9217008DA007108DB007208DC00730806
:1007A200DD007008F4007108F5007208F6007308A5
:1007B200F7000030F0000030F1007030F2008530B8
:1007C200F30069210130031C0030F00070080319A6
:1007D200EB2B86140030F4000030F5007230F60086
:1007E2008530F7005A08F0005B08F1005C08F2005F
:1007F2005D08F30069210130031C0030F00070082D
:100802000319042C86105A08F0005B08F1005C08FA
:10081200F2005D08F3000C217008E2007108E300A9
:100822005030F002031CF1036430F4000030F50094
:100832001A229630F400F50145227008EE00710884
:10084200EF000030F4000030F5006630F60086302C
:10085200F7005A08F0005B08F1005C08F2005D083E
:10086200F30069210130031C0030F0007008031905
:100872003E2C6430EE000030EF005A08F4005B08B2
:10088200F5005C08F6005D08F7000030F00000306B
:10089200F1002030F2008530F30069210130031CA1
:1008A2000030F00070080319582CEE01EF010A30F5
:1008B200F4000030F5006E08F0006F08F1004522E8
:1008C2007808F0007908F100303070078316A7002D
:1008D2006430F4000030F50083126E08F0006F08F7
:1008E200F10045227808F0007908F1000A30F4009E
:1008F2000030F5004522303070078316A600E8303C
:10090200F4000330F50083126E08F0006F08F10066
:1009120045227808F0007908F1006430F4000030D4
:10092200F500452230307007F10071088316A500EA
:100932007108303A031D9F2C2030A5000130AA0017
:100942000130AB003D30AC00F82201308316AA0022
:100952000430AB00A530AC00F82201308316AA00A7
:100962000730AB005730AC00F8225A08F4005B089D
:10097200F5005C08F6005D08F7000030F00000307A
:10098200F1007030F2008530F30069210130031C60
:100992000030F00070080319D62C01308316AA002B
:1009A2000830AB004D30AC00F8220030F4000030CB
:1009B200F5007230F6008530F7005A08F0005B0847
:1009C200F1005C08F2005D08F30069210130031CAC
:1009D2000030F00070080319F62C01308316AA00CB
:1009E2000830AB004230AC00F822F4308316AA0083
:1009F2000130AB00AE228930831203139F003230E4
:100A02008316AA000030AB00AE228D30831203138E
:100A12009F001F1D0D2D0A2D1E08EB00EA018316F3
:100A22001E088312EA040030EB0432308316AA0057
:100A32000030AB00AE228930831203139F006A0894
:100A4200F0006B08F100CE228F30F400C230F500C6
:100A52007530F6007D30F700B9217008E6007108A4
:100A6200E7007208E8007308E9007008F4007108F2
:100A7200F5007208F6007308F7000030F00000304D
:100A8200F1005230F2008530F30069210130031C7D
:100A92000030F000700803194F2D06150030F400E5
:100AA2000030F5005430F6008530F7006608F0009B
:100AB2006708F1006808F2006908F3006921013053
:100AC200031C0030F00070080319682D0611660837
:100AD200F0006708F1006808F2006908F3000C21D1
:100AE2007008E4007108E5005030F002031CF103C5
:100AF2006430F4000030F5001A229630F400F5015B
:100B020045227008EC007108ED000030F40000305E
:100B1200F5006630F6008630F7006608F0006708D8
:100B2200F1006808F2006908F30069210130031C32
:100B32000030F00070080319A22D6430EC00003080
:100B4200ED006608F4006708F5006808F600690819
:100B5200F7000030F0000030F1002030F200853064
:100B6200F30069210130031C0030F0007008031902
:100B7200BC2DEC01ED010A30F4000030F5006C08E8
:100B8200F0006D08F10045227808F0007908F100C4
:100B9200303070078316A2006430F4000030F50094
:100BA20083126C08F0006D08F10045227808F0000D
:100BB2007908F1000A30F4000030F50045223030A7
:100BC20070078316A100E830F4000330F5008312A9
:100BD2006C08F0006D08F10045227808F0007908F1
:100BE200F1006430F4000030F50045223030700727
:100BF200F10071088316A0007108303A031D032E1C
:100C02002030A0000230AA000130AB003830AC0026
:100C1200F82202308316AA000430AB00A030AC00E8
:100C2200F82202308316AA000730AB003630AC003F
:100C3200F8226608F4006708F5006808F6006908FB
:100C4200F7000030F0000030F1005230F200853041
:100C5200F30069210130031C0030F0007008031911
:100C62003A2E02308316AA000830AB002130AC00C5
:100C7200F8220030F4000030F5005430F6008530E0
:100C8200F7006608F0006708F1006808F2006908DA
:100C9200F30069210130031C0030F00070080319D1
:100CA2005A2E02308316AA000830AB002B30AC005B
:100CB200F822F4308316AA000130AB00AE22643071
:100CC20083160313AA000030AB00AE22982B682EC5
:100D4C0021308400383083120313F0006E30E00041
:080D5C000630E100EC22080062
:100CDC004C344F34573420344C344534563445342A
:040CEC004C34003450
:100CF0004E344F3452344D3441344C34203420344B
:060D000020342034003411
:040D0600253400345C
:0A0D0A00543432343D3420340034F8
:0A0D1400543431343D3420340034EF
:100D1E004E344F3452344D3441344C34203420341C
:060D2E00203420340034E3
:100D34004C344F34573420344C34453456344534D1
:040D44004C340034F7
:040D4800253400341A
:02400E00C22FBF
:00000001FF
